{
  "_format": "hh-sol-artifact-1",
  "contractName": "EunomiaNFT",
  "sourceName": "contracts/EunomiaNFT.sol",
  "abi": [
    {
      "inputs": [],
      "stateMutability": "nonpayable",
      "type": "constructor"
    },
    {
      "anonymous": false,
      "inputs": [
        {
          "indexed": true,
          "internalType": "address",
          "name": "owner",
          "type": "address"
        },
        {
          "indexed": true,
          "internalType": "address",
          "name": "approved",
          "type": "address"
        },
        {
          "indexed": true,
          "internalType": "uint256",
          "name": "tokenId",
          "type": "uint256"
        }
      ],
      "name": "Approval",
      "type": "event"
    },
    {
      "anonymous": false,
      "inputs": [
        {
          "indexed": true,
          "internalType": "address",
          "name": "owner",
          "type": "address"
        },
        {
          "indexed": true,
          "internalType": "address",
          "name": "operator",
          "type": "address"
        },
        {
          "indexed": false,
          "internalType": "bool",
          "name": "approved",
          "type": "bool"
        }
      ],
      "name": "ApprovalForAll",
      "type": "event"
    },
    {
      "anonymous": false,
      "inputs": [
        {
          "indexed": false,
          "internalType": "address",
          "name": "sender",
          "type": "address"
        },
        {
          "indexed": false,
          "internalType": "uint256",
          "name": "tokenId",
          "type": "uint256"
        }
      ],
      "name": "NFTMinted",
      "type": "event"
    },
    {
      "anonymous": false,
      "inputs": [
        {
          "indexed": true,
          "internalType": "address",
          "name": "from",
          "type": "address"
        },
        {
          "indexed": true,
          "internalType": "address",
          "name": "to",
          "type": "address"
        },
        {
          "indexed": true,
          "internalType": "uint256",
          "name": "tokenId",
          "type": "uint256"
        }
      ],
      "name": "Transfer",
      "type": "event"
    },
    {
      "inputs": [
        {
          "internalType": "address",
          "name": "to",
          "type": "address"
        },
        {
          "internalType": "uint256",
          "name": "tokenId",
          "type": "uint256"
        }
      ],
      "name": "approve",
      "outputs": [],
      "stateMutability": "nonpayable",
      "type": "function"
    },
    {
      "inputs": [
        {
          "internalType": "address",
          "name": "owner",
          "type": "address"
        }
      ],
      "name": "balanceOf",
      "outputs": [
        {
          "internalType": "uint256",
          "name": "",
          "type": "uint256"
        }
      ],
      "stateMutability": "view",
      "type": "function"
    },
    {
      "inputs": [
        {
          "internalType": "uint256",
          "name": "tokenId",
          "type": "uint256"
        }
      ],
      "name": "getApproved",
      "outputs": [
        {
          "internalType": "address",
          "name": "",
          "type": "address"
        }
      ],
      "stateMutability": "view",
      "type": "function"
    },
    {
      "inputs": [],
      "name": "get_dump",
      "outputs": [
        {
          "internalType": "uint256",
          "name": "",
          "type": "uint256"
        }
      ],
      "stateMutability": "view",
      "type": "function"
    },
    {
      "inputs": [
        {
          "internalType": "address",
          "name": "owner",
          "type": "address"
        },
        {
          "internalType": "address",
          "name": "operator",
          "type": "address"
        }
      ],
      "name": "isApprovedForAll",
      "outputs": [
        {
          "internalType": "bool",
          "name": "",
          "type": "bool"
        }
      ],
      "stateMutability": "view",
      "type": "function"
    },
    {
      "inputs": [
        {
          "internalType": "string",
          "name": "text_input",
          "type": "string"
        }
      ],
      "name": "makeAnNFT",
      "outputs": [],
      "stateMutability": "nonpayable",
      "type": "function"
    },
    {
      "inputs": [],
      "name": "name",
      "outputs": [
        {
          "internalType": "string",
          "name": "",
          "type": "string"
        }
      ],
      "stateMutability": "view",
      "type": "function"
    },
    {
      "inputs": [
        {
          "internalType": "uint256",
          "name": "tokenId",
          "type": "uint256"
        }
      ],
      "name": "ownerOf",
      "outputs": [
        {
          "internalType": "address",
          "name": "",
          "type": "address"
        }
      ],
      "stateMutability": "view",
      "type": "function"
    },
    {
      "inputs": [
        {
          "internalType": "address",
          "name": "from",
          "type": "address"
        },
        {
          "internalType": "address",
          "name": "to",
          "type": "address"
        },
        {
          "internalType": "uint256",
          "name": "tokenId",
          "type": "uint256"
        }
      ],
      "name": "safeTransferFrom",
      "outputs": [],
      "stateMutability": "nonpayable",
      "type": "function"
    },
    {
      "inputs": [
        {
          "internalType": "address",
          "name": "from",
          "type": "address"
        },
        {
          "internalType": "address",
          "name": "to",
          "type": "address"
        },
        {
          "internalType": "uint256",
          "name": "tokenId",
          "type": "uint256"
        },
        {
          "internalType": "bytes",
          "name": "_data",
          "type": "bytes"
        }
      ],
      "name": "safeTransferFrom",
      "outputs": [],
      "stateMutability": "nonpayable",
      "type": "function"
    },
    {
      "inputs": [
        {
          "internalType": "address",
          "name": "operator",
          "type": "address"
        },
        {
          "internalType": "bool",
          "name": "approved",
          "type": "bool"
        }
      ],
      "name": "setApprovalForAll",
      "outputs": [],
      "stateMutability": "nonpayable",
      "type": "function"
    },
    {
      "inputs": [
        {
          "internalType": "bytes4",
          "name": "interfaceId",
          "type": "bytes4"
        }
      ],
      "name": "supportsInterface",
      "outputs": [
        {
          "internalType": "bool",
          "name": "",
          "type": "bool"
        }
      ],
      "stateMutability": "view",
      "type": "function"
    },
    {
      "inputs": [],
      "name": "symbol",
      "outputs": [
        {
          "internalType": "string",
          "name": "",
          "type": "string"
        }
      ],
      "stateMutability": "view",
      "type": "function"
    },
    {
      "inputs": [
        {
          "internalType": "uint256",
          "name": "tokenId",
          "type": "uint256"
        }
      ],
      "name": "tokenURI",
      "outputs": [
        {
          "internalType": "string",
          "name": "",
          "type": "string"
        }
      ],
      "stateMutability": "view",
      "type": "function"
    },
    {
      "inputs": [
        {
          "internalType": "address",
          "name": "from",
          "type": "address"
        },
        {
          "internalType": "address",
          "name": "to",
          "type": "address"
        },
        {
          "internalType": "uint256",
          "name": "tokenId",
          "type": "uint256"
        }
      ],
      "name": "transferFrom",
      "outputs": [],
      "stateMutability": "nonpayable",
      "type": "function"
    }
  ],
  "bytecode": "0x6080604052604051806108a001604052806108618152602001620037a361086191396008908051906020019062000038929190620001ed565b5060006009553480156200004b57600080fd5b506040518060400160405280600a81526020017f45756e6f6d69614e4654000000000000000000000000000000000000000000008152506040518060400160405280600781526020017f45554e4f4d4941000000000000000000000000000000000000000000000000008152508160009080519060200190620000d0929190620001ed565b508060019080519060200190620000e9929190620001ed565b5050506200011b60405180606001604052806021815260200162003782602191396200012160201b62000e311760201c565b620003ca565b620001c181604051602401620001389190620002de565b6040516020818303038152906040527f41304fac000000000000000000000000000000000000000000000000000000007bffffffffffffffffffffffffffffffffffffffffffffffffffffffff19166020820180517bffffffffffffffffffffffffffffffffffffffffffffffffffffffff8381831617835250505050620001c460201b60201c565b50565b60008151905060006a636f6e736f6c652e6c6f679050602083016000808483855afa5050505050565b828054620001fb9062000354565b90600052602060002090601f0160209004810192826200021f57600085556200026b565b82601f106200023a57805160ff19168380011785556200026b565b828001600101855582156200026b579182015b828111156200026a5782518255916020019190600101906200024d565b5b5090506200027a91906200027e565b5090565b5b80821115620002995760008160009055506001016200027f565b5090565b6000620002aa8262000302565b620002b681856200030d565b9350620002c88185602086016200031e565b620002d381620003b9565b840191505092915050565b60006020820190508181036000830152620002fa81846200029d565b905092915050565b600081519050919050565b600082825260208201905092915050565b60005b838110156200033e57808201518184015260208101905062000321565b838111156200034e576000848401525b50505050565b600060028204905060018216806200036d57607f821691505b602082108114156200038457620003836200038a565b5b50919050565b7f4e487b7100000000000000000000000000000000000000000000000000000000600052602260045260246000fd5b6000601f19601f8301169050919050565b6133a880620003da6000396000f3fe608060405234801561001057600080fd5b50600436106100f55760003560e01c806370a0823111610097578063b88d4fde11610066578063b88d4fde14610282578063c87b56dd1461029e578063e985e9c5146102ce578063f07b11ab146102fe576100f5565b806370a08231146101fc57806395d89b411461022c578063a22cb4651461024a578063b305282014610266576100f5565b8063095ea7b3116100d3578063095ea7b31461017857806323b872dd1461019457806342842e0e146101b05780636352211e146101cc576100f5565b806301ffc9a7146100fa57806306fdde031461012a578063081812fc14610148575b600080fd5b610114600480360381019061010f91906120f9565b61031c565b6040516101219190612bee565b60405180910390f35b6101326103fe565b60405161013f9190612c09565b60405180910390f35b610162600480360381019061015d919061218c565b610490565b60405161016f9190612b5e565b60405180910390f35b610192600480360381019061018d91906120bd565b610515565b005b6101ae60048036038101906101a99190611fb7565b61062d565b005b6101ca60048036038101906101c59190611fb7565b61068d565b005b6101e660048036038101906101e1919061218c565b6106ad565b6040516101f39190612b5e565b60405180910390f35b61021660048036038101906102119190611f52565b61075f565b6040516102239190612e69565b60405180910390f35b610234610817565b6040516102419190612c09565b60405180910390f35b610264600480360381019061025f9190612081565b6108a9565b005b610280600480360381019061027b919061214b565b610a2a565b005b61029c60048036038101906102979190612006565b610bdf565b005b6102b860048036038101906102b3919061218c565b610c41565b6040516102c59190612c09565b60405180910390f35b6102e860048036038101906102e39190611f7b565b610d93565b6040516102f59190612bee565b60405180910390f35b610306610e27565b6040516103139190612e69565b60405180910390f35b60007f80ac58cd000000000000000000000000000000000000000000000000000000007bffffffffffffffffffffffffffffffffffffffffffffffffffffffff1916827bffffffffffffffffffffffffffffffffffffffffffffffffffffffff191614806103e757507f5b5e139f000000000000000000000000000000000000000000000000000000007bffffffffffffffffffffffffffffffffffffffffffffffffffffffff1916827bffffffffffffffffffffffffffffffffffffffffffffffffffffffff1916145b806103f757506103f682610eca565b5b9050919050565b60606000805461040d90613138565b80601f016020809104026020016040519081016040528092919081815260200182805461043990613138565b80156104865780601f1061045b57610100808354040283529160200191610486565b820191906000526020600020905b81548152906001019060200180831161046957829003601f168201915b5050505050905090565b600061049b82610f34565b6104da576040517f08c379a00000000000000000000000000000000000000000000000000000000081526004016104d190612dc9565b60405180910390fd5b6004600083815260200190815260200160002060009054906101000a900473ffffffffffffffffffffffffffffffffffffffff169050919050565b6000610520826106ad565b90508073ffffffffffffffffffffffffffffffffffffffff168373ffffffffffffffffffffffffffffffffffffffff161415610591576040517f08c379a000000000000000000000000000000000000000000000000000000000815260040161058890612e29565b60405180910390fd5b8073ffffffffffffffffffffffffffffffffffffffff166105b0610fa0565b73ffffffffffffffffffffffffffffffffffffffff1614806105df57506105de816105d9610fa0565b610d93565b5b61061e576040517f08c379a000000000000000000000000000000000000000000000000000000000815260040161061590612d09565b60405180910390fd5b6106288383610fa8565b505050565b61063e610638610fa0565b82611061565b61067d576040517f08c379a000000000000000000000000000000000000000000000000000000000815260040161067490612e49565b60405180910390fd5b61068883838361113f565b505050565b6106a883838360405180602001604052806000815250610bdf565b505050565b6000806002600084815260200190815260200160002060009054906101000a900473ffffffffffffffffffffffffffffffffffffffff169050600073ffffffffffffffffffffffffffffffffffffffff168173ffffffffffffffffffffffffffffffffffffffff161415610756576040517f08c379a000000000000000000000000000000000000000000000000000000000815260040161074d90612d49565b60405180910390fd5b80915050919050565b60008073ffffffffffffffffffffffffffffffffffffffff168273ffffffffffffffffffffffffffffffffffffffff1614156107d0576040517f08c379a00000000000000000000000000000000000000000000000000000000081526004016107c790612d29565b60405180910390fd5b600360008373ffffffffffffffffffffffffffffffffffffffff1673ffffffffffffffffffffffffffffffffffffffff168152602001908152602001600020549050919050565b60606001805461082690613138565b80601f016020809104026020016040519081016040528092919081815260200182805461085290613138565b801561089f5780601f106108745761010080835404028352916020019161089f565b820191906000526020600020905b81548152906001019060200180831161088257829003601f168201915b5050505050905090565b6108b1610fa0565b73ffffffffffffffffffffffffffffffffffffffff168273ffffffffffffffffffffffffffffffffffffffff16141561091f576040517f08c379a000000000000000000000000000000000000000000000000000000000815260040161091690612cc9565b60405180910390fd5b806005600061092c610fa0565b73ffffffffffffffffffffffffffffffffffffffff1673ffffffffffffffffffffffffffffffffffffffff16815260200190815260200160002060008473ffffffffffffffffffffffffffffffffffffffff1673ffffffffffffffffffffffffffffffffffffffff16815260200190815260200160002060006101000a81548160ff0219169083151502179055508173ffffffffffffffffffffffffffffffffffffffff166109d9610fa0565b73ffffffffffffffffffffffffffffffffffffffff167f17307eab39ab6107e8899845ad3d59bd9653f200f220920489ca2b5937696c3183604051610a1e9190612bee565b60405180910390a35050565b6000610a36600761139b565b905060008290506000600882604051602001610a53929190612ac8565b60405160208183030381529060405290506000610a9883610a73846113a9565b604051602001610a84929190612af7565b6040516020818303038152906040526113a9565b9050600081604051602001610aad9190612b3c565b6040516020818303038152906040529050610afc6040518060400160405280601581526020017f0a2d2d2d2d2d2d2d2d2d2d2d2d2d2d2d2d2d2d2d2d0000000000000000000000815250610e31565b610b0583610e31565b610b436040518060400160405280601581526020017f2d2d2d2d2d2d2d2d2d2d2d2d2d2d2d2d2d2d2d2d0a0000000000000000000000815250610e31565b610b4d3386611567565b610b578582611585565b610b6160076115f9565b610b8460405180606001604052806025815260200161330e60259139863361160f565b600160096000828254610b979190612f6d565b925050819055507f4cc0a9c4a99ddc700de1af2c9f916a7cbfdb71f14801ccff94061ad1ef8a80403386604051610bcf929190612bc5565b60405180910390a1505050505050565b610bf0610bea610fa0565b83611061565b610c2f576040517f08c379a0000000000000000000000000000000000000000000000000000000008152600401610c2690612e49565b60405180910390fd5b610c3b848484846116ae565b50505050565b6060610c4c82610f34565b610c8b576040517f08c379a0000000000000000000000000000000000000000000000000000000008152600401610c8290612da9565b60405180910390fd5b6000600660008481526020019081526020016000208054610cab90613138565b80601f0160208091040260200160405190810160405280929190818152602001828054610cd790613138565b8015610d245780601f10610cf957610100808354040283529160200191610d24565b820191906000526020600020905b815481529060010190602001808311610d0757829003601f168201915b505050505090506000610d3561170a565b9050600081511415610d4b578192505050610d8e565b600082511115610d80578082604051602001610d68929190612aa4565b60405160208183030381529060405292505050610d8e565b610d8984611721565b925050505b919050565b6000600560008473ffffffffffffffffffffffffffffffffffffffff1673ffffffffffffffffffffffffffffffffffffffff16815260200190815260200160002060008373ffffffffffffffffffffffffffffffffffffffff1673ffffffffffffffffffffffffffffffffffffffff16815260200190815260200160002060009054906101000a900460ff16905092915050565b6000600954905090565b610ec781604051602401610e459190612c09565b6040516020818303038152906040527f41304fac000000000000000000000000000000000000000000000000000000007bffffffffffffffffffffffffffffffffffffffffffffffffffffffff19166020820180517bffffffffffffffffffffffffffffffffffffffffffffffffffffffff83818316178352505050506117c8565b50565b60007f01ffc9a7000000000000000000000000000000000000000000000000000000007bffffffffffffffffffffffffffffffffffffffffffffffffffffffff1916827bffffffffffffffffffffffffffffffffffffffffffffffffffffffff1916149050919050565b60008073ffffffffffffffffffffffffffffffffffffffff166002600084815260200190815260200160002060009054906101000a900473ffffffffffffffffffffffffffffffffffffffff1673ffffffffffffffffffffffffffffffffffffffff1614159050919050565b600033905090565b816004600083815260200190815260200160002060006101000a81548173ffffffffffffffffffffffffffffffffffffffff021916908373ffffffffffffffffffffffffffffffffffffffff160217905550808273ffffffffffffffffffffffffffffffffffffffff1661101b836106ad565b73ffffffffffffffffffffffffffffffffffffffff167f8c5be1e5ebec7d5bd14f71427d1e84f3dd0314c0f7b2291e5b200ac8c7c3b92560405160405180910390a45050565b600061106c82610f34565b6110ab576040517f08c379a00000000000000000000000000000000000000000000000000000000081526004016110a290612ce9565b60405180910390fd5b60006110b6836106ad565b90508073ffffffffffffffffffffffffffffffffffffffff168473ffffffffffffffffffffffffffffffffffffffff16148061112557508373ffffffffffffffffffffffffffffffffffffffff1661110d84610490565b73ffffffffffffffffffffffffffffffffffffffff16145b8061113657506111358185610d93565b5b91505092915050565b8273ffffffffffffffffffffffffffffffffffffffff1661115f826106ad565b73ffffffffffffffffffffffffffffffffffffffff16146111b5576040517f08c379a00000000000000000000000000000000000000000000000000000000081526004016111ac90612de9565b60405180910390fd5b600073ffffffffffffffffffffffffffffffffffffffff168273ffffffffffffffffffffffffffffffffffffffff161415611225576040517f08c379a000000000000000000000000000000000000000000000000000000000815260040161121c90612ca9565b60405180910390fd5b6112308383836117f1565b61123b600082610fa8565b6001600360008573ffffffffffffffffffffffffffffffffffffffff1673ffffffffffffffffffffffffffffffffffffffff168152602001908152602001600020600082825461128b919061304e565b925050819055506001600360008473ffffffffffffffffffffffffffffffffffffffff1673ffffffffffffffffffffffffffffffffffffffff16815260200190815260200160002060008282546112e29190612f6d565b92505081905550816002600083815260200190815260200160002060006101000a81548173ffffffffffffffffffffffffffffffffffffffff021916908373ffffffffffffffffffffffffffffffffffffffff160217905550808273ffffffffffffffffffffffffffffffffffffffff168473ffffffffffffffffffffffffffffffffffffffff167fddf252ad1be2c89b69c2b068fc378daa952ba7f163c4a11628f55a4df523b3ef60405160405180910390a4505050565b600081600001549050919050565b606060008251905060008114156113d25760405180602001604052806000815250915050611562565b600060036002836113e39190612f6d565b6113ed9190612fc3565b60046113f99190612ff4565b9050600060208261140a9190612f6d565b67ffffffffffffffff811115611449577f4e487b7100000000000000000000000000000000000000000000000000000000600052604160045260246000fd5b6040519080825280601f01601f19166020018201604052801561147b5781602001600182028036833780820191505090505b5090506000604051806060016040528060408152602001613333604091399050600181016020830160005b8681101561151f5760038101905062ffffff818a015116603f8160121c168401518060081b905060ff603f83600c1c1686015116810190508060081b905060ff603f8360061c1686015116810190508060081b905060ff603f831686015116810190508060e01b905080845260048401935050506114a6565b506003860660018114611539576002811461154957611554565b613d3d60f01b6002830352611554565b603d60f81b60018303525b508484525050819450505050505b919050565b6115818282604051806020016040528060008152506117f6565b5050565b61158e82610f34565b6115cd576040517f08c379a00000000000000000000000000000000000000000000000000000000081526004016115c490612d69565b60405180910390fd5b806006600084815260200190815260200160002090805190602001906115f4929190611d76565b505050565b6001816000016000828254019250508190555050565b6116a983838360405160240161162793929190612c2b565b6040516020818303038152906040527fe3849f79000000000000000000000000000000000000000000000000000000007bffffffffffffffffffffffffffffffffffffffffffffffffffffffff19166020820180517bffffffffffffffffffffffffffffffffffffffffffffffffffffffff83818316178352505050506117c8565b505050565b6116b984848461113f565b6116c584848484611851565b611704576040517f08c379a00000000000000000000000000000000000000000000000000000000081526004016116fb90612c69565b60405180910390fd5b50505050565b606060405180602001604052806000815250905090565b606061172c82610f34565b61176b576040517f08c379a000000000000000000000000000000000000000000000000000000000815260040161176290612e09565b60405180910390fd5b600061177561170a565b9050600081511161179557604051806020016040528060008152506117c0565b8061179f846119e8565b6040516020016117b0929190612aa4565b6040516020818303038152906040525b915050919050565b60008151905060006a636f6e736f6c652e6c6f679050602083016000808483855afa5050505050565b505050565b6118008383611b95565b61180d6000848484611851565b61184c576040517f08c379a000000000000000000000000000000000000000000000000000000000815260040161184390612c69565b60405180910390fd5b505050565b60006118728473ffffffffffffffffffffffffffffffffffffffff16611d63565b156119db578373ffffffffffffffffffffffffffffffffffffffff1663150b7a0261189b610fa0565b8786866040518563ffffffff1660e01b81526004016118bd9493929190612b79565b602060405180830381600087803b1580156118d757600080fd5b505af192505050801561190857506040513d601f19601f820116820180604052508101906119059190612122565b60015b61198b573d8060008114611938576040519150601f19603f3d011682016040523d82523d6000602084013e61193d565b606091505b50600081511415611983576040517f08c379a000000000000000000000000000000000000000000000000000000000815260040161197a90612c69565b60405180910390fd5b805181602001fd5b63150b7a0260e01b7bffffffffffffffffffffffffffffffffffffffffffffffffffffffff1916817bffffffffffffffffffffffffffffffffffffffffffffffffffffffff1916149150506119e0565b600190505b949350505050565b60606000821415611a30576040518060400160405280600181526020017f30000000000000000000000000000000000000000000000000000000000000008152509050611b90565b600082905060005b60008214611a62578080611a4b9061316a565b915050600a82611a5b9190612fc3565b9150611a38565b60008167ffffffffffffffff811115611aa4577f4e487b7100000000000000000000000000000000000000000000000000000000600052604160045260246000fd5b6040519080825280601f01601f191660200182016040528015611ad65781602001600182028036833780820191505090505b5090505b60008514611b8957600182611aef919061304e565b9150600a85611afe91906131b3565b6030611b0a9190612f6d565b60f81b818381518110611b46577f4e487b7100000000000000000000000000000000000000000000000000000000600052603260045260246000fd5b60200101907effffffffffffffffffffffffffffffffffffffffffffffffffffffffffffff1916908160001a905350600a85611b829190612fc3565b9450611ada565b8093505050505b919050565b600073ffffffffffffffffffffffffffffffffffffffff168273ffffffffffffffffffffffffffffffffffffffff161415611c05576040517f08c379a0000000000000000000000000000000000000000000000000000000008152600401611bfc90612d89565b60405180910390fd5b611c0e81610f34565b15611c4e576040517f08c379a0000000000000000000000000000000000000000000000000000000008152600401611c4590612c89565b60405180910390fd5b611c5a600083836117f1565b6001600360008473ffffffffffffffffffffffffffffffffffffffff1673ffffffffffffffffffffffffffffffffffffffff1681526020019081526020016000206000828254611caa9190612f6d565b92505081905550816002600083815260200190815260200160002060006101000a81548173ffffffffffffffffffffffffffffffffffffffff021916908373ffffffffffffffffffffffffffffffffffffffff160217905550808273ffffffffffffffffffffffffffffffffffffffff16600073ffffffffffffffffffffffffffffffffffffffff167fddf252ad1be2c89b69c2b068fc378daa952ba7f163c4a11628f55a4df523b3ef60405160405180910390a45050565b600080823b905060008111915050919050565b828054611d8290613138565b90600052602060002090601f016020900481019282611da45760008555611deb565b82601f10611dbd57805160ff1916838001178555611deb565b82800160010185558215611deb579182015b82811115611dea578251825591602001919060010190611dcf565b5b509050611df89190611dfc565b5090565b5b80821115611e15576000816000905550600101611dfd565b5090565b6000611e2c611e2784612eb5565b612e84565b905082815260208101848484011115611e4457600080fd5b611e4f8482856130f6565b509392505050565b6000611e6a611e6584612ee5565b612e84565b905082815260208101848484011115611e8257600080fd5b611e8d8482856130f6565b509392505050565b600081359050611ea4816132b1565b92915050565b600081359050611eb9816132c8565b92915050565b600081359050611ece816132df565b92915050565b600081519050611ee3816132df565b92915050565b600082601f830112611efa57600080fd5b8135611f0a848260208601611e19565b91505092915050565b600082601f830112611f2457600080fd5b8135611f34848260208601611e57565b91505092915050565b600081359050611f4c816132f6565b92915050565b600060208284031215611f6457600080fd5b6000611f7284828501611e95565b91505092915050565b60008060408385031215611f8e57600080fd5b6000611f9c85828601611e95565b9250506020611fad85828601611e95565b9150509250929050565b600080600060608486031215611fcc57600080fd5b6000611fda86828701611e95565b9350506020611feb86828701611e95565b9250506040611ffc86828701611f3d565b9150509250925092565b6000806000806080858703121561201c57600080fd5b600061202a87828801611e95565b945050602061203b87828801611e95565b935050604061204c87828801611f3d565b925050606085013567ffffffffffffffff81111561206957600080fd5b61207587828801611ee9565b91505092959194509250565b6000806040838503121561209457600080fd5b60006120a285828601611e95565b92505060206120b385828601611eaa565b9150509250929050565b600080604083850312156120d057600080fd5b60006120de85828601611e95565b92505060206120ef85828601611f3d565b9150509250929050565b60006020828403121561210b57600080fd5b600061211984828501611ebf565b91505092915050565b60006020828403121561213457600080fd5b600061214284828501611ed4565b91505092915050565b60006020828403121561215d57600080fd5b600082013567ffffffffffffffff81111561217757600080fd5b61218384828501611f13565b91505092915050565b60006020828403121561219e57600080fd5b60006121ac84828501611f3d565b91505092915050565b6121be81613082565b82525050565b6121cd81613094565b82525050565b60006121de82612f2a565b6121e88185612f40565b93506121f8818560208601613105565b612201816132a0565b840191505092915050565b600061221782612f35565b6122218185612f51565b9350612231818560208601613105565b61223a816132a0565b840191505092915050565b600061225082612f35565b61225a8185612f62565b935061226a818560208601613105565b80840191505092915050565b6000815461228381613138565b61228d8186612f62565b945060018216600081146122a857600181146122b9576122ec565b60ff198316865281860193506122ec565b6122c285612f15565b60005b838110156122e4578154818901526001820191506020810190506122c5565b838801955050505b50505092915050565b6000612302603283612f51565b91507f4552433732313a207472616e7366657220746f206e6f6e20455243373231526560008301527f63656976657220696d706c656d656e74657200000000000000000000000000006020830152604082019050919050565b6000612368601c83612f51565b91507f4552433732313a20746f6b656e20616c7265616479206d696e746564000000006000830152602082019050919050565b60006123a8606e83612f62565b91507f222c20226465736372697074696f6e223a2022546f6b656e73206f662061707060008301527f726563696174696f6e2066726f6d207468652063697479206f6620456c65757460208301527f686572696f732e222c2022696d616765223a2022646174613a696d6167652f7360408301527f76672b786d6c3b6261736536342c0000000000000000000000000000000000006060830152606e82019050919050565b600061245a602483612f51565b91507f4552433732313a207472616e7366657220746f20746865207a65726f2061646460008301527f72657373000000000000000000000000000000000000000000000000000000006020830152604082019050919050565b60006124c0601983612f51565b91507f4552433732313a20617070726f766520746f2063616c6c6572000000000000006000830152602082019050919050565b6000612500602c83612f51565b91507f4552433732313a206f70657261746f7220717565727920666f72206e6f6e657860008301527f697374656e7420746f6b656e00000000000000000000000000000000000000006020830152604082019050919050565b6000612566600d83612f62565b91507f3c2f746578743e3c2f7376673e000000000000000000000000000000000000006000830152600d82019050919050565b60006125a6603883612f51565b91507f4552433732313a20617070726f76652063616c6c6572206973206e6f74206f7760008301527f6e6572206e6f7220617070726f76656420666f7220616c6c00000000000000006020830152604082019050919050565b600061260c602a83612f51565b91507f4552433732313a2062616c616e636520717565727920666f7220746865207a6560008301527f726f2061646472657373000000000000000000000000000000000000000000006020830152604082019050919050565b6000612672602983612f51565b91507f4552433732313a206f776e657220717565727920666f72206e6f6e657869737460008301527f656e7420746f6b656e00000000000000000000000000000000000000000000006020830152604082019050919050565b60006126d8602e83612f51565b91507f45524337323155524953746f726167653a2055524920736574206f66206e6f6e60008301527f6578697374656e7420746f6b656e0000000000000000000000000000000000006020830152604082019050919050565b600061273e600283612f62565b91507f227d0000000000000000000000000000000000000000000000000000000000006000830152600282019050919050565b600061277e602083612f51565b91507f4552433732313a206d696e7420746f20746865207a65726f20616464726573736000830152602082019050919050565b60006127be603183612f51565b91507f45524337323155524953746f726167653a2055524920717565727920666f722060008301527f6e6f6e6578697374656e7420746f6b656e0000000000000000000000000000006020830152604082019050919050565b6000612824602c83612f51565b91507f4552433732313a20617070726f76656420717565727920666f72206e6f6e657860008301527f697374656e7420746f6b656e00000000000000000000000000000000000000006020830152604082019050919050565b600061288a602983612f51565b91507f4552433732313a207472616e73666572206f6620746f6b656e2074686174206960008301527f73206e6f74206f776e00000000000000000000000000000000000000000000006020830152604082019050919050565b60006128f0602f83612f51565b91507f4552433732314d657461646174613a2055524920717565727920666f72206e6f60008301527f6e6578697374656e7420746f6b656e00000000000000000000000000000000006020830152604082019050919050565b6000612956600a83612f62565b91507f7b226e616d65223a2022000000000000000000000000000000000000000000006000830152600a82019050919050565b6000612996602183612f51565b91507f4552433732313a20617070726f76616c20746f2063757272656e74206f776e6560008301527f72000000000000000000000000000000000000000000000000000000000000006020830152604082019050919050565b60006129fc601d83612f62565b91507f646174613a6170706c69636174696f6e2f6a736f6e3b6261736536342c0000006000830152601d82019050919050565b6000612a3c603183612f51565b91507f4552433732313a207472616e736665722063616c6c6572206973206e6f74206f60008301527f776e6572206e6f7220617070726f7665640000000000000000000000000000006020830152604082019050919050565b612a9e816130ec565b82525050565b6000612ab08285612245565b9150612abc8284612245565b91508190509392505050565b6000612ad48285612276565b9150612ae08284612245565b9150612aeb82612559565b91508190509392505050565b6000612b0282612949565b9150612b0e8285612245565b9150612b198261239b565b9150612b258284612245565b9150612b3082612731565b91508190509392505050565b6000612b47826129ef565b9150612b538284612245565b915081905092915050565b6000602082019050612b7360008301846121b5565b92915050565b6000608082019050612b8e60008301876121b5565b612b9b60208301866121b5565b612ba86040830185612a95565b8181036060830152612bba81846121d3565b905095945050505050565b6000604082019050612bda60008301856121b5565b612be76020830184612a95565b9392505050565b6000602082019050612c0360008301846121c4565b92915050565b60006020820190508181036000830152612c23818461220c565b905092915050565b60006060820190508181036000830152612c45818661220c565b9050612c546020830185612a95565b612c6160408301846121b5565b949350505050565b60006020820190508181036000830152612c82816122f5565b9050919050565b60006020820190508181036000830152612ca28161235b565b9050919050565b60006020820190508181036000830152612cc28161244d565b9050919050565b60006020820190508181036000830152612ce2816124b3565b9050919050565b60006020820190508181036000830152612d02816124f3565b9050919050565b60006020820190508181036000830152612d2281612599565b9050919050565b60006020820190508181036000830152612d42816125ff565b9050919050565b60006020820190508181036000830152612d6281612665565b9050919050565b60006020820190508181036000830152612d82816126cb565b9050919050565b60006020820190508181036000830152612da281612771565b9050919050565b60006020820190508181036000830152612dc2816127b1565b9050919050565b60006020820190508181036000830152612de281612817565b9050919050565b60006020820190508181036000830152612e028161287d565b9050919050565b60006020820190508181036000830152612e22816128e3565b9050919050565b60006020820190508181036000830152612e4281612989565b9050919050565b60006020820190508181036000830152612e6281612a2f565b9050919050565b6000602082019050612e7e6000830184612a95565b92915050565b6000604051905081810181811067ffffffffffffffff82111715612eab57612eaa613271565b5b8060405250919050565b600067ffffffffffffffff821115612ed057612ecf613271565b5b601f19601f8301169050602081019050919050565b600067ffffffffffffffff821115612f0057612eff613271565b5b601f19601f8301169050602081019050919050565b60008190508160005260206000209050919050565b600081519050919050565b600081519050919050565b600082825260208201905092915050565b600082825260208201905092915050565b600081905092915050565b6000612f78826130ec565b9150612f83836130ec565b9250827fffffffffffffffffffffffffffffffffffffffffffffffffffffffffffffffff03821115612fb857612fb76131e4565b5b828201905092915050565b6000612fce826130ec565b9150612fd9836130ec565b925082612fe957612fe8613213565b5b828204905092915050565b6000612fff826130ec565b915061300a836130ec565b9250817fffffffffffffffffffffffffffffffffffffffffffffffffffffffffffffffff0483118215151615613043576130426131e4565b5b828202905092915050565b6000613059826130ec565b9150613064836130ec565b925082821015613077576130766131e4565b5b828203905092915050565b600061308d826130cc565b9050919050565b60008115159050919050565b60007fffffffff0000000000000000000000000000000000000000000000000000000082169050919050565b600073ffffffffffffffffffffffffffffffffffffffff82169050919050565b6000819050919050565b82818337600083830152505050565b60005b83811015613123578082015181840152602081019050613108565b83811115613132576000848401525b50505050565b6000600282049050600182168061315057607f821691505b6020821081141561316457613163613242565b5b50919050565b6000613175826130ec565b91507fffffffffffffffffffffffffffffffffffffffffffffffffffffffffffffffff8214156131a8576131a76131e4565b5b600182019050919050565b60006131be826130ec565b91506131c9836130ec565b9250826131d9576131d8613213565b5b828206905092915050565b7f4e487b7100000000000000000000000000000000000000000000000000000000600052601160045260246000fd5b7f4e487b7100000000000000000000000000000000000000000000000000000000600052601260045260246000fd5b7f4e487b7100000000000000000000000000000000000000000000000000000000600052602260045260246000fd5b7f4e487b7100000000000000000000000000000000000000000000000000000000600052604160045260246000fd5b6000601f19601f8301169050919050565b6132ba81613082565b81146132c557600080fd5b50565b6132d181613094565b81146132dc57600080fd5b50565b6132e8816130a0565b81146132f357600080fd5b50565b6132ff816130ec565b811461330a57600080fd5b5056fe416e204e465420772f20494420257320686173206265656e206d696e74656420746f2025734142434445464748494a4b4c4d4e4f505152535455565758595a6162636465666768696a6b6c6d6e6f707172737475767778797a303132333435363738392b2fa26469706673582212205ed61d721df9fbd71338d812fd06cdf953f83be2ff7cc994bcd18df00f4802cd64736f6c634300080000334c657427732067697665206f757420736f6d6520746f6b656e732e20576f6168213c7376672076657273696f6e3d27312e302720786d6c6e733d27687474703a2f2f7777772e77332e6f72672f323030302f737667272077696474683d273330302e303030303030707427206865696768743d273330302e3030303030307074272076696577426f783d27302030203330302e303030303030203330302e30303030303027207072657365727665417370656374526174696f3d27784d6964594d6964206d656574273e203c67207472616e73666f726d3d277472616e736c61746528302e3030303030302c3330302e30303030303029207363616c6528302e3130303030302c2d302e31303030303029272066696c6c3d272330303030303027207374726f6b653d276e6f6e65273e203c7061746820643d274d302031353030206c30202d3135303020313530302030203135303020302030203135303020302031353030202d313530302030202d3135303020302030202d313530307a206d3732302031313637206330202d31322033202d33322036202d34342036202d32332035202d3233202d3830202d3233206c2d38372030203320333820332033372036302035206333332033203638203620373820372031312031203137202d35203137202d32307a206d3138352031206333202d31332034202d38382032202d313638206c2d32202d313435202d38302030202d38302030202d332031313320632d3320313039202d322031313320323020313232206c32332039202d3232203020632d31392031202d32332037202d3233203330203020353720362036312038362036312036382030203734202d32203739202d32327a206d2d333635202d3237206c30202d3338202d3731202d3720632d3339202d33202d3735202d34202d3830202d31202d31332039202d3131203539203320373320372037203430203132203830203132206c363820302030202d33397a206d2d313830202d3131206c30202d3430202d3830203020632d38362030202d38392032202d37342035382036203230203132203232203830203232206c373420302030202d34307a206d313830202d313635206c30202d313135202d3533203020632d34382030202d35352033202d3635203235202d37203134202d3139203238202d3237203331202d31322035202d3135203234202d31352038342030203930202d33203837203938203839206c363220312030202d3131357a206d3138382033206c2d33202d313133202d3832202d33202d3833202d3320302031313620302031313520383520302038362030202d33202d3131327a206d2d333638203232206330202d3638202d33202d3831202d3139202d3930202d3131202d35202d3233202d3139202d3236202d3330202d35202d3137202d3135202d3230202d3631202d3230206c2d35342030203020313130203020313130203830203020383020302030202d38307a206d323030202d323830206330202d3535202d32202d313030202d35202d313030202d332030202d3130203130202d3136203233202d3237203539202d3339203732202d3831203832202d33302037202d3432203135202d3339203235203220382036203237203920343320342032362036203237203638203237206c363420302030202d3130307a206d313830202d3135206c30202d313135202d3531203020632d35332030202d35342033202d3230203435203135203139203135203139202d332035202d3138202d3134202d3139202d3133202d31332038203320313320332033302030203338202d37203230202d3238202d33202d3439202d3535202d39202d3233202d3139202d3431202d3233202d3431202d332030202d35203532202d3320313135206c3320313135203830203020373920302030202d3131357a206d3137382033206c2d33202d313133202d3737202d33202d3738202d3320302031313620302031313520383020302038312030202d33202d3131327a206d2d35393820383720633139202d32332035202d3432202d3530202d3730206c2d3530202d3235203020353520302035352034342030206332362030203438202d36203536202d31357a206d333635202d323137206c353520342030202d313136206330202d3932202d33202d313136202d3134202d313136202d382030202d31362037202d3230203135202d332038202d3132203135202d3231203135202d382030202d3135202d37202d3135202d31352030202d3131202d3132202d3135202d3435202d3135206c2d343520302030203638206330203630203220363820323320373720313820382032322031372032312035352030203235203120343020332033342032202d37203234202d39203538202d367a206d323335202d313133206c30202d313135202d3536203020632d34362030202d35352033202d3530203135203320392030203135202d39203135202d382030202d3135202d37202d3135202d31352030202d38202d37202d3135202d3135202d3135202d31322030202d3135203139202d313520313135206c3020313135203830203020383020302030202d3131357a206d2d333732203536206337202d39203132202d3435203132202d3933206c30202d3738202d3334203020632d33312030202d33342033202d3339203337202d34203230202d3420373020302031313020362037332036203733203237203536203132202d3130203237202d3234203334202d33327a272f3e3c2f673e203c7374796c653e2e62617365207b2066696c6c3a2077686974653b20666f6e742d66616d696c793a2073657269663b20666f6e742d73697a653a20323470783b207d3c2f7374796c653e3c7465787420783d273530252720793d273530252720636c6173733d27626173652720646f6d696e616e742d626173656c696e653d276d6964646c652720746578742d616e63686f723d276d6964646c65273e",
  "linkReferences": {},
  "deployedLinkReferences": {}
}